{
  "contractName": "Calculator",
  "abi": [
    {
      "inputs": [],
      "stateMutability": "nonpayable",
      "type": "constructor"
    },
    {
      "inputs": [],
      "name": "result",
      "outputs": [
        {
          "internalType": "uint256",
          "name": "",
          "type": "uint256"
        }
      ],
      "stateMutability": "view",
      "type": "function",
      "constant": true
    },
    {
      "inputs": [
        {
          "internalType": "uint256",
          "name": "a",
          "type": "uint256"
        },
        {
          "internalType": "uint256",
          "name": "b",
          "type": "uint256"
        }
      ],
      "name": "add",
      "outputs": [],
      "stateMutability": "nonpayable",
      "type": "function"
    },
    {
      "inputs": [
        {
          "internalType": "uint256",
          "name": "a",
          "type": "uint256"
        },
        {
          "internalType": "uint256",
          "name": "b",
          "type": "uint256"
        }
      ],
      "name": "subtract",
      "outputs": [],
      "stateMutability": "nonpayable",
      "type": "function"
    },
    {
      "inputs": [
        {
          "internalType": "uint256",
          "name": "a",
          "type": "uint256"
        },
        {
          "internalType": "uint256",
          "name": "b",
          "type": "uint256"
        }
      ],
      "name": "multiply",
      "outputs": [],
      "stateMutability": "nonpayable",
      "type": "function"
    },
    {
      "inputs": [
        {
          "internalType": "uint256",
          "name": "a",
          "type": "uint256"
        },
        {
          "internalType": "uint256",
          "name": "b",
          "type": "uint256"
        }
      ],
      "name": "divide",
      "outputs": [],
      "stateMutability": "nonpayable",
      "type": "function"
    },
    {
      "inputs": [],
      "name": "getResult",
      "outputs": [
        {
          "internalType": "uint256",
          "name": "",
          "type": "uint256"
        }
      ],
      "stateMutability": "view",
      "type": "function",
      "constant": true
    }
  ],
  "bytecode": "0x608060405234801561001057600080fd5b50610474806100206000396000f3fe608060405234801561001057600080fd5b50600436106100625760003560e01c8063165c4a16146100675780633ef5e44514610083578063653721471461009f578063771602f7146100bd578063de292789146100d9578063f88e9fbf146100f7575b600080fd5b610081600480360381019061007c91906101d3565b610113565b005b61009d600480360381019061009891906101d3565b610129565b005b6100a761013f565b6040516100b4919061027e565b60405180910390f35b6100d760048036038101906100d291906101d3565b610145565b005b6100e161015b565b6040516100ee919061027e565b60405180910390f35b610111600480360381019061010c91906101d3565b610164565b005b808261011f9190610331565b6000819055505050565b8082610135919061038b565b6000819055505050565b60005481565b808261015191906102aa565b6000819055505050565b60008054905090565b60008114156101a8576040517f08c379a000000000000000000000000000000000000000000000000000000000815260040161019f9061025e565b60405180910390fd5b80826101b49190610300565b6000819055505050565b6000813590506101cd81610427565b92915050565b600080604083850312156101e657600080fd5b60006101f4858286016101be565b9250506020610205858286016101be565b9150509250929050565b600061021c601083610299565b91507f4469766973696f6e206279207a65726f000000000000000000000000000000006000830152602082019050919050565b610258816103bf565b82525050565b600060208201905081810360008301526102778161020f565b9050919050565b6000602082019050610293600083018461024f565b92915050565b600082825260208201905092915050565b60006102b5826103bf565b91506102c0836103bf565b9250827fffffffffffffffffffffffffffffffffffffffffffffffffffffffffffffffff038211156102f5576102f46103c9565b5b828201905092915050565b600061030b826103bf565b9150610316836103bf565b925082610326576103256103f8565b5b828204905092915050565b600061033c826103bf565b9150610347836103bf565b9250817fffffffffffffffffffffffffffffffffffffffffffffffffffffffffffffffff04831182151516156103805761037f6103c9565b5b828202905092915050565b6000610396826103bf565b91506103a1836103bf565b9250828210156103b4576103b36103c9565b5b828203905092915050565b6000819050919050565b7f4e487b7100000000000000000000000000000000000000000000000000000000600052601160045260246000fd5b7f4e487b7100000000000000000000000000000000000000000000000000000000600052601260045260246000fd5b610430816103bf565b811461043b57600080fd5b5056fea2646970667358221220e295c200800da95aa1758204542ea5df054a4ce83aa9d89a439f7f3804df876264736f6c63430008000033",
  "immutableReferences": {},
  "source": "// SPDX-License-Identifier: MIT\npragma solidity >=0.4.22 <0.9.0;\n\ncontract Calculator {\n    constructor() public {}\n\n    uint256 public result;\n\n    function add(uint256 a, uint256 b) public {\n        result = a + b;\n    }\n\n    function subtract(uint256 a, uint256 b) public {\n        result = a - b;\n    }\n\n    function multiply(uint256 a, uint256 b) public {\n        result = a * b;\n    }\n\n    function divide(uint256 a, uint256 b) public {\n        require(b != 0, \"Division by zero\");\n        result = a / b;\n    }\n\n    function getResult() public view returns (uint256) {\n        return result;\n    }\n}\n",
  "sourcePath": "C:\\Users\\loqui\\OneDrive\\Documentos\\blockchain\\Calculator\\contracts\\Calculator.sol",
  "compiler": {
    "name": "solc",
    "version": "0.8.0+commit.c7dfd78e.Emscripten.clang"
  },
  "schemaVersion": "3.4.14",
  "updatedAt": "2023-06-05T08:06:33.342Z",
  "networkType": "ethereum",
  "devdoc": {
    "kind": "dev",
    "methods": {},
    "version": 1
  },
  "userdoc": {
    "kind": "user",
    "methods": {},
    "version": 1
  }
}