{
  "contractName": "Calculator",
  "abi": [
    {
      "inputs": [],
      "stateMutability": "nonpayable",
      "type": "constructor"
    },
    {
      "inputs": [
        {
          "internalType": "uint256",
          "name": "a",
          "type": "uint256"
        },
        {
          "internalType": "uint256",
          "name": "b",
          "type": "uint256"
        }
      ],
      "name": "add",
      "outputs": [
        {
          "internalType": "uint256",
          "name": "",
          "type": "uint256"
        }
      ],
      "stateMutability": "pure",
      "type": "function"
    },
    {
      "inputs": [
        {
          "internalType": "uint256",
          "name": "a",
          "type": "uint256"
        },
        {
          "internalType": "uint256",
          "name": "b",
          "type": "uint256"
        }
      ],
      "name": "subtract",
      "outputs": [
        {
          "internalType": "uint256",
          "name": "",
          "type": "uint256"
        }
      ],
      "stateMutability": "pure",
      "type": "function"
    },
    {
      "inputs": [
        {
          "internalType": "uint256",
          "name": "a",
          "type": "uint256"
        },
        {
          "internalType": "uint256",
          "name": "b",
          "type": "uint256"
        }
      ],
      "name": "multiply",
      "outputs": [
        {
          "internalType": "uint256",
          "name": "",
          "type": "uint256"
        }
      ],
      "stateMutability": "pure",
      "type": "function"
    },
    {
      "inputs": [
        {
          "internalType": "uint256",
          "name": "a",
          "type": "uint256"
        },
        {
          "internalType": "uint256",
          "name": "b",
          "type": "uint256"
        }
      ],
      "name": "divide",
      "outputs": [
        {
          "internalType": "uint256",
          "name": "",
          "type": "uint256"
        }
      ],
      "stateMutability": "pure",
      "type": "function"
    }
  ],
  "bytecode": "0x608060405234801561001057600080fd5b506103ae806100206000396000f3fe608060405234801561001057600080fd5b506004361061004c5760003560e01c8063165c4a16146100515780633ef5e44514610081578063771602f7146100b1578063f88e9fbf146100e1575b600080fd5b61006b6004803603810190610066919061017e565b610111565b60405161007891906101c9565b60405180910390f35b61009b6004803603810190610096919061017e565b610127565b6040516100a891906101c9565b60405180910390f35b6100cb60048036038101906100c6919061017e565b61013d565b6040516100d891906101c9565b60405180910390f35b6100fb60048036038101906100f6919061017e565b610153565b60405161010891906101c9565b60405180910390f35b6000818361011f919061026b565b905092915050565b6000818361013591906102c5565b905092915050565b6000818361014b91906101e4565b905092915050565b60008183610161919061023a565b905092915050565b60008135905061017881610361565b92915050565b6000806040838503121561019157600080fd5b600061019f85828601610169565b92505060206101b085828601610169565b9150509250929050565b6101c3816102f9565b82525050565b60006020820190506101de60008301846101ba565b92915050565b60006101ef826102f9565b91506101fa836102f9565b9250827fffffffffffffffffffffffffffffffffffffffffffffffffffffffffffffffff0382111561022f5761022e610303565b5b828201905092915050565b6000610245826102f9565b9150610250836102f9565b9250826102605761025f610332565b5b828204905092915050565b6000610276826102f9565b9150610281836102f9565b9250817fffffffffffffffffffffffffffffffffffffffffffffffffffffffffffffffff04831182151516156102ba576102b9610303565b5b828202905092915050565b60006102d0826102f9565b91506102db836102f9565b9250828210156102ee576102ed610303565b5b828203905092915050565b6000819050919050565b7f4e487b7100000000000000000000000000000000000000000000000000000000600052601160045260246000fd5b7f4e487b7100000000000000000000000000000000000000000000000000000000600052601260045260246000fd5b61036a816102f9565b811461037557600080fd5b5056fea2646970667358221220e4a547aa76c2adf23c85930c433e09888819372e7e2d29fc718149649453d70a64736f6c63430008000033",
  "immutableReferences": {},
  "source": "pragma solidity >=0.4.22 <0.9.0;\n\ncontract Calculator {\n  constructor()  public {\n  }\n\n  // Add two numbers together\n  function add(uint256 a, uint256 b) public pure returns (uint256) {\n    return a + b;\n  }\n\n  // Subtract one number from another\n  function subtract(uint256 a, uint256 b) public pure returns (uint256) {\n    return a - b;\n  }\n\n  // Multiply two numbers together\n  function multiply(uint256 a, uint256 b) public pure returns (uint256) {\n    return a * b;\n  }\n\n  // Divide one number by another\n  function divide(uint256 a, uint256 b) public pure returns (uint256) {\n    return a / b;\n  }\n}\n",
  "sourcePath": "C:\\Users\\loqui\\OneDrive\\Documentos\\blockchain\\Calculator\\contracts\\Calculator.sol",
  "compiler": {
    "name": "solc",
    "version": "0.8.0+commit.c7dfd78e.Emscripten.clang"
  },
  "schemaVersion": "3.4.14",
  "updatedAt": "2023-06-05T06:41:57.215Z",
  "devdoc": {
    "kind": "dev",
    "methods": {},
    "version": 1
  },
  "userdoc": {
    "kind": "user",
    "methods": {},
    "version": 1
  }
}