{
  "contractName": "Calculator",
  "abi": [
    {
      "inputs": [],
      "stateMutability": "nonpayable",
      "type": "constructor"
    },
    {
      "inputs": [],
      "name": "maxNumber",
      "outputs": [
        {
          "internalType": "uint256",
          "name": "",
          "type": "uint256"
        }
      ],
      "stateMutability": "view",
      "type": "function",
      "constant": true
    },
    {
      "inputs": [],
      "name": "minNumber",
      "outputs": [
        {
          "internalType": "uint256",
          "name": "",
          "type": "uint256"
        }
      ],
      "stateMutability": "view",
      "type": "function",
      "constant": true
    },
    {
      "inputs": [],
      "name": "result",
      "outputs": [
        {
          "internalType": "uint256",
          "name": "",
          "type": "uint256"
        }
      ],
      "stateMutability": "view",
      "type": "function",
      "constant": true
    },
    {
      "inputs": [
        {
          "internalType": "uint256",
          "name": "a",
          "type": "uint256"
        },
        {
          "internalType": "uint256",
          "name": "b",
          "type": "uint256"
        }
      ],
      "name": "add",
      "outputs": [],
      "stateMutability": "nonpayable",
      "type": "function"
    },
    {
      "inputs": [
        {
          "internalType": "uint256",
          "name": "a",
          "type": "uint256"
        },
        {
          "internalType": "uint256",
          "name": "b",
          "type": "uint256"
        }
      ],
      "name": "subtract",
      "outputs": [],
      "stateMutability": "nonpayable",
      "type": "function"
    },
    {
      "inputs": [
        {
          "internalType": "uint256",
          "name": "a",
          "type": "uint256"
        },
        {
          "internalType": "uint256",
          "name": "b",
          "type": "uint256"
        }
      ],
      "name": "multiply",
      "outputs": [],
      "stateMutability": "nonpayable",
      "type": "function"
    },
    {
      "inputs": [
        {
          "internalType": "uint256",
          "name": "a",
          "type": "uint256"
        },
        {
          "internalType": "uint256",
          "name": "b",
          "type": "uint256"
        }
      ],
      "name": "divide",
      "outputs": [],
      "stateMutability": "nonpayable",
      "type": "function"
    },
    {
      "inputs": [],
      "name": "getResult",
      "outputs": [
        {
          "internalType": "uint256",
          "name": "",
          "type": "uint256"
        }
      ],
      "stateMutability": "view",
      "type": "function",
      "constant": true
    }
  ],
  "bytecode": "0x608060405234801561001057600080fd5b50610538806100206000396000f3fe608060405234801561001057600080fd5b50600436106100885760003560e01c8063653721471161005b5780636537214714610101578063771602f71461011f578063de2927891461013b578063f88e9fbf1461015957610088565b8063165c4a161461008d5780633a4f6999146100a95780633ef5e445146100c757806355b93031146100e3575b600080fd5b6100a760048036038101906100a29190610297565b610175565b005b6100b1610195565b6040516100be9190610342565b60405180910390f35b6100e160048036038101906100dc9190610297565b61019b565b005b6100eb6101bb565b6040516100f89190610342565b60405180910390f35b6101096101c1565b6040516101169190610342565b60405180910390f35b61013960048036038101906101349190610297565b6101c7565b005b6101436101e7565b6040516101509190610342565b60405180910390f35b610173600480360381019061016e9190610297565b6101f0565b005b808261018191906103f5565b6000819055506101918282610254565b5050565b60015481565b80826101a7919061044f565b6000819055506101b78282610254565b5050565b60025481565b60005481565b80826101d3919061036e565b6000819055506101e38282610254565b5050565b60008054905090565b6000811415610234576040517f08c379a000000000000000000000000000000000000000000000000000000000815260040161022b90610322565b60405180910390fd5b808261024091906103c4565b6000819055506102508282610254565b5050565b8082111561026f57816001819055508060028190555061027e565b80600181905550816002819055505b5050565b600081359050610291816104eb565b92915050565b600080604083850312156102aa57600080fd5b60006102b885828601610282565b92505060206102c985828601610282565b9150509250929050565b60006102e060108361035d565b91507f4469766973696f6e206279207a65726f000000000000000000000000000000006000830152602082019050919050565b61031c81610483565b82525050565b6000602082019050818103600083015261033b816102d3565b9050919050565b60006020820190506103576000830184610313565b92915050565b600082825260208201905092915050565b600061037982610483565b915061038483610483565b9250827fffffffffffffffffffffffffffffffffffffffffffffffffffffffffffffffff038211156103b9576103b861048d565b5b828201905092915050565b60006103cf82610483565b91506103da83610483565b9250826103ea576103e96104bc565b5b828204905092915050565b600061040082610483565b915061040b83610483565b9250817fffffffffffffffffffffffffffffffffffffffffffffffffffffffffffffffff04831182151516156104445761044361048d565b5b828202905092915050565b600061045a82610483565b915061046583610483565b9250828210156104785761047761048d565b5b828203905092915050565b6000819050919050565b7f4e487b7100000000000000000000000000000000000000000000000000000000600052601160045260246000fd5b7f4e487b7100000000000000000000000000000000000000000000000000000000600052601260045260246000fd5b6104f481610483565b81146104ff57600080fd5b5056fea26469706673582212207b1705e8c0a5fea798ee07cea2a608165df47a730be0b3785881dc476e0f15b064736f6c63430008000033",
  "immutableReferences": {},
  "source": "// SPDX-License-Identifier: MIT\npragma solidity >=0.4.22 <0.9.0;\n\ncontract Calculator {\n    constructor() public {}\n\n    uint256 public result;\n    uint256 public maxNumber;\n    uint256 public minNumber;\n\n    function add(uint256 a, uint256 b) public {\n        result = a + b;\n        updateMaxAndMinNumbers(a, b);\n    }\n\n    function subtract(uint256 a, uint256 b) public {\n        result = a - b;\n        updateMaxAndMinNumbers(a, b);\n    }\n\n    function multiply(uint256 a, uint256 b) public {\n        result = a * b;\n        updateMaxAndMinNumbers(a, b);\n    }\n\n    function divide(uint256 a, uint256 b) public {\n        require(b != 0, \"Division by zero\");\n        result = a / b;\n        updateMaxAndMinNumbers(a, b);\n    }\n\n    function getResult() public view returns (uint256) {\n        return result;\n    }\n\n    function updateMaxAndMinNumbers(uint256 a, uint256 b) internal {\n        if (a > b) {\n            maxNumber = a;\n            minNumber = b;\n        } else {\n            maxNumber = b;\n            minNumber = a;\n        }\n    }\n}\n",
  "sourcePath": "C:\\Users\\loqui\\OneDrive\\Documentos\\blockchain\\Calculator\\contracts\\Calculator.sol",
  "compiler": {
    "name": "solc",
    "version": "0.8.0+commit.c7dfd78e.Emscripten.clang"
  },
  "schemaVersion": "3.4.14",
  "updatedAt": "2023-06-06T00:58:12.560Z",
  "networkType": "ethereum",
  "devdoc": {
    "kind": "dev",
    "methods": {},
    "version": 1
  },
  "userdoc": {
    "kind": "user",
    "methods": {},
    "version": 1
  }
}