{
  "contractName": "SimpleSum",
  "abi": [
    {
      "inputs": [],
      "name": "result",
      "outputs": [
        {
          "internalType": "uint256",
          "name": "",
          "type": "uint256"
        }
      ],
      "stateMutability": "view",
      "type": "function"
    },
    {
      "inputs": [
        {
          "internalType": "uint256",
          "name": "a",
          "type": "uint256"
        },
        {
          "internalType": "uint256",
          "name": "b",
          "type": "uint256"
        }
      ],
      "name": "sum",
      "outputs": [],
      "stateMutability": "nonpayable",
      "type": "function"
    }
  ],
  "bytecode": "0x608060405234801561000f575f80fd5b5060e58061001c5f395ff3fe6080604052348015600e575f80fd5b50600436106030575f3560e01c806365372147146034578063cad0899b14604d575b5f80fd5b603b5f5481565b60405190815260200160405180910390f35b605c6058366004606c565b605e565b005b60668183608b565b5f555050565b5f8060408385031215607c575f80fd5b50508035926020909101359150565b8082018082111560a957634e487b7160e01b5f52601160045260245ffd5b9291505056fea2646970667358221220f87f1ecc6dd84adc8de2bb5dea7ad1ce6f8f237a7a61787bb8355642f237f71264736f6c63430008140033",
  "immutableReferences": {},
  "source": "// SPDX-License-Identifier: MIT\npragma solidity >=0.4.22 <0.9.0;\n\ncontract SimpleSum {\n    uint public result;\n\n    function sum(uint a, uint b) public {\n        result = a + b;\n    }\n}",
  "sourcePath": "C:\\Users\\loqui\\OneDrive\\Documentos\\blockchain\\sumacontract\\contracts\\SimpleSum.sol",
  "compiler": {
    "name": "solc",
    "version": "0.8.20+commit.a1b79de6.Emscripten.clang"
  },
  "schemaVersion": "3.4.14",
  "updatedAt": "2023-06-05T05:53:54.038Z",
  "devdoc": {
    "kind": "dev",
    "methods": {},
    "version": 1
  },
  "userdoc": {
    "kind": "user",
    "methods": {},
    "version": 1
  }
}